{
  "contractName": "AssetToken",
  "abi": [
    {
      "inputs": [
        {
          "internalType": "string",
          "name": "name",
          "type": "string"
        },
        {
          "internalType": "string",
          "name": "symbol",
          "type": "string"
        },
        {
          "internalType": "uint256",
          "name": "initialSupply",
          "type": "uint256"
        }
      ],
      "stateMutability": "nonpayable",
      "type": "constructor"
    },
    {
      "inputs": [
        {
          "internalType": "address",
          "name": "spender",
          "type": "address"
        },
        {
          "internalType": "uint256",
          "name": "allowance",
          "type": "uint256"
        },
        {
          "internalType": "uint256",
          "name": "needed",
          "type": "uint256"
        }
      ],
      "name": "ERC20InsufficientAllowance",
      "type": "error"
    },
    {
      "inputs": [
        {
          "internalType": "address",
          "name": "sender",
          "type": "address"
        },
        {
          "internalType": "uint256",
          "name": "balance",
          "type": "uint256"
        },
        {
          "internalType": "uint256",
          "name": "needed",
          "type": "uint256"
        }
      ],
      "name": "ERC20InsufficientBalance",
      "type": "error"
    },
    {
      "inputs": [
        {
          "internalType": "address",
          "name": "approver",
          "type": "address"
        }
      ],
      "name": "ERC20InvalidApprover",
      "type": "error"
    },
    {
      "inputs": [
        {
          "internalType": "address",
          "name": "receiver",
          "type": "address"
        }
      ],
      "name": "ERC20InvalidReceiver",
      "type": "error"
    },
    {
      "inputs": [
        {
          "internalType": "address",
          "name": "sender",
          "type": "address"
        }
      ],
      "name": "ERC20InvalidSender",
      "type": "error"
    },
    {
      "inputs": [
        {
          "internalType": "address",
          "name": "spender",
          "type": "address"
        }
      ],
      "name": "ERC20InvalidSpender",
      "type": "error"
    },
    {
      "inputs": [
        {
          "internalType": "address",
          "name": "owner",
          "type": "address"
        }
      ],
      "name": "OwnableInvalidOwner",
      "type": "error"
    },
    {
      "inputs": [
        {
          "internalType": "address",
          "name": "account",
          "type": "address"
        }
      ],
      "name": "OwnableUnauthorizedAccount",
      "type": "error"
    },
    {
      "anonymous": false,
      "inputs": [
        {
          "indexed": true,
          "internalType": "address",
          "name": "owner",
          "type": "address"
        },
        {
          "indexed": true,
          "internalType": "address",
          "name": "spender",
          "type": "address"
        },
        {
          "indexed": false,
          "internalType": "uint256",
          "name": "value",
          "type": "uint256"
        }
      ],
      "name": "Approval",
      "type": "event"
    },
    {
      "anonymous": false,
      "inputs": [
        {
          "indexed": true,
          "internalType": "address",
          "name": "previousOwner",
          "type": "address"
        },
        {
          "indexed": true,
          "internalType": "address",
          "name": "newOwner",
          "type": "address"
        }
      ],
      "name": "OwnershipTransferred",
      "type": "event"
    },
    {
      "anonymous": false,
      "inputs": [
        {
          "indexed": true,
          "internalType": "address",
          "name": "from",
          "type": "address"
        },
        {
          "indexed": true,
          "internalType": "address",
          "name": "to",
          "type": "address"
        },
        {
          "indexed": false,
          "internalType": "uint256",
          "name": "value",
          "type": "uint256"
        }
      ],
      "name": "Transfer",
      "type": "event"
    },
    {
      "inputs": [
        {
          "internalType": "address",
          "name": "owner",
          "type": "address"
        },
        {
          "internalType": "address",
          "name": "spender",
          "type": "address"
        }
      ],
      "name": "allowance",
      "outputs": [
        {
          "internalType": "uint256",
          "name": "",
          "type": "uint256"
        }
      ],
      "stateMutability": "view",
      "type": "function",
      "constant": true
    },
    {
      "inputs": [
        {
          "internalType": "address",
          "name": "spender",
          "type": "address"
        },
        {
          "internalType": "uint256",
          "name": "value",
          "type": "uint256"
        }
      ],
      "name": "approve",
      "outputs": [
        {
          "internalType": "bool",
          "name": "",
          "type": "bool"
        }
      ],
      "stateMutability": "nonpayable",
      "type": "function"
    },
    {
      "inputs": [
        {
          "internalType": "address",
          "name": "account",
          "type": "address"
        }
      ],
      "name": "balanceOf",
      "outputs": [
        {
          "internalType": "uint256",
          "name": "",
          "type": "uint256"
        }
      ],
      "stateMutability": "view",
      "type": "function",
      "constant": true
    },
    {
      "inputs": [],
      "name": "decimals",
      "outputs": [
        {
          "internalType": "uint8",
          "name": "",
          "type": "uint8"
        }
      ],
      "stateMutability": "view",
      "type": "function",
      "constant": true
    },
    {
      "inputs": [],
      "name": "name",
      "outputs": [
        {
          "internalType": "string",
          "name": "",
          "type": "string"
        }
      ],
      "stateMutability": "view",
      "type": "function",
      "constant": true
    },
    {
      "inputs": [],
      "name": "owner",
      "outputs": [
        {
          "internalType": "address",
          "name": "",
          "type": "address"
        }
      ],
      "stateMutability": "view",
      "type": "function",
      "constant": true
    },
    {
      "inputs": [],
      "name": "renounceOwnership",
      "outputs": [],
      "stateMutability": "nonpayable",
      "type": "function"
    },
    {
      "inputs": [],
      "name": "symbol",
      "outputs": [
        {
          "internalType": "string",
          "name": "",
          "type": "string"
        }
      ],
      "stateMutability": "view",
      "type": "function",
      "constant": true
    },
    {
      "inputs": [],
      "name": "totalSupply",
      "outputs": [
        {
          "internalType": "uint256",
          "name": "",
          "type": "uint256"
        }
      ],
      "stateMutability": "view",
      "type": "function",
      "constant": true
    },
    {
      "inputs": [
        {
          "internalType": "address",
          "name": "to",
          "type": "address"
        },
        {
          "internalType": "uint256",
          "name": "value",
          "type": "uint256"
        }
      ],
      "name": "transfer",
      "outputs": [
        {
          "internalType": "bool",
          "name": "",
          "type": "bool"
        }
      ],
      "stateMutability": "nonpayable",
      "type": "function"
    },
    {
      "inputs": [
        {
          "internalType": "address",
          "name": "from",
          "type": "address"
        },
        {
          "internalType": "address",
          "name": "to",
          "type": "address"
        },
        {
          "internalType": "uint256",
          "name": "value",
          "type": "uint256"
        }
      ],
      "name": "transferFrom",
      "outputs": [
        {
          "internalType": "bool",
          "name": "",
          "type": "bool"
        }
      ],
      "stateMutability": "nonpayable",
      "type": "function"
    },
    {
      "inputs": [
        {
          "internalType": "address",
          "name": "newOwner",
          "type": "address"
        }
      ],
      "name": "transferOwnership",
      "outputs": [],
      "stateMutability": "nonpayable",
      "type": "function"
    },
    {
      "inputs": [
        {
          "internalType": "address",
          "name": "to",
          "type": "address"
        },
        {
          "internalType": "uint256",
          "name": "amount",
          "type": "uint256"
        }
      ],
      "name": "mintTokens",
      "outputs": [],
      "stateMutability": "nonpayable",
      "type": "function"
    },
    {
      "inputs": [
        {
          "internalType": "address",
          "name": "from",
          "type": "address"
        },
        {
          "internalType": "uint256",
          "name": "amount",
          "type": "uint256"
        }
      ],
      "name": "burnTokens",
      "outputs": [],
      "stateMutability": "nonpayable",
      "type": "function"
    }
  ],
  "bytecode": "0x608060405234801561000f575f5ffd5b50604051611e28380380611e28833981810160405281019061003191906105fb565b3383838160039081610043919061088a565b508060049081610053919061088a565b5050505f73ffffffffffffffffffffffffffffffffffffffff168173ffffffffffffffffffffffffffffffffffffffff16036100c6575f6040517f1e4fbdf70000000000000000000000000000000000000000000000000000000081526004016100bd9190610998565b60405180910390fd5b6100d58161011260201b60201c565b5061010a336100e86101d560201b60201c565b600a6100f49190610b19565b836100ff9190610b63565b6101dd60201b60201c565b505050610c34565b5f60055f9054906101000a900473ffffffffffffffffffffffffffffffffffffffff1690508160055f6101000a81548173ffffffffffffffffffffffffffffffffffffffff021916908373ffffffffffffffffffffffffffffffffffffffff1602179055508173ffffffffffffffffffffffffffffffffffffffff168173ffffffffffffffffffffffffffffffffffffffff167f8be0079c531659141344cd1fd0a4f28419497f9722a3daafe3b4186f6b6457e060405160405180910390a35050565b5f6012905090565b5f73ffffffffffffffffffffffffffffffffffffffff168273ffffffffffffffffffffffffffffffffffffffff160361024d575f6040517fec442f050000000000000000000000000000000000000000000000000000000081526004016102449190610998565b60405180910390fd5b61025e5f838361026260201b60201c565b5050565b5f73ffffffffffffffffffffffffffffffffffffffff168373ffffffffffffffffffffffffffffffffffffffff16036102b2578060025f8282546102a69190610ba4565b92505081905550610380565b5f5f5f8573ffffffffffffffffffffffffffffffffffffffff1673ffffffffffffffffffffffffffffffffffffffff1681526020019081526020015f205490508181101561033b578381836040517fe450d38c00000000000000000000000000000000000000000000000000000000815260040161033293929190610be6565b60405180910390fd5b8181035f5f8673ffffffffffffffffffffffffffffffffffffffff1673ffffffffffffffffffffffffffffffffffffffff1681526020019081526020015f2081905550505b5f73ffffffffffffffffffffffffffffffffffffffff168273ffffffffffffffffffffffffffffffffffffffff16036103c7578060025f8282540392505081905550610411565b805f5f8473ffffffffffffffffffffffffffffffffffffffff1673ffffffffffffffffffffffffffffffffffffffff1681526020019081526020015f205f82825401925050819055505b8173ffffffffffffffffffffffffffffffffffffffff168373ffffffffffffffffffffffffffffffffffffffff167fddf252ad1be2c89b69c2b068fc378daa952ba7f163c4a11628f55a4df523b3ef8360405161046e9190610c1b565b60405180910390a3505050565b5f604051905090565b5f5ffd5b5f5ffd5b5f5ffd5b5f5ffd5b5f601f19601f8301169050919050565b7f4e487b71000000000000000000000000000000000000000000000000000000005f52604160045260245ffd5b6104da82610494565b810181811067ffffffffffffffff821117156104f9576104f86104a4565b5b80604052505050565b5f61050b61047b565b905061051782826104d1565b919050565b5f67ffffffffffffffff821115610536576105356104a4565b5b61053f82610494565b9050602081019050919050565b8281835e5f83830152505050565b5f61056c6105678461051c565b610502565b90508281526020810184848401111561058857610587610490565b5b61059384828561054c565b509392505050565b5f82601f8301126105af576105ae61048c565b5b81516105bf84826020860161055a565b91505092915050565b5f819050919050565b6105da816105c8565b81146105e4575f5ffd5b50565b5f815190506105f5816105d1565b92915050565b5f5f5f6060848603121561061257610611610484565b5b5f84015167ffffffffffffffff81111561062f5761062e610488565b5b61063b8682870161059b565b935050602084015167ffffffffffffffff81111561065c5761065b610488565b5b6106688682870161059b565b9250506040610679868287016105e7565b9150509250925092565b5f81519050919050565b7f4e487b71000000000000000000000000000000000000000000000000000000005f52602260045260245ffd5b5f60028204905060018216806106d157607f821691505b6020821081036106e4576106e361068d565b5b50919050565b5f819050815f5260205f209050919050565b5f6020601f8301049050919050565b5f82821b905092915050565b5f600883026107467fffffffffffffffffffffffffffffffffffffffffffffffffffffffffffffffff8261070b565b610750868361070b565b95508019841693508086168417925050509392505050565b5f819050919050565b5f61078b610786610781846105c8565b610768565b6105c8565b9050919050565b5f819050919050565b6107a483610771565b6107b86107b082610792565b848454610717565b825550505050565b5f5f905090565b6107cf6107c0565b6107da81848461079b565b505050565b5b818110156107fd576107f25f826107c7565b6001810190506107e0565b5050565b601f82111561084257610813816106ea565b61081c846106fc565b8101602085101561082b578190505b61083f610837856106fc565b8301826107df565b50505b505050565b5f82821c905092915050565b5f6108625f1984600802610847565b1980831691505092915050565b5f61087a8383610853565b9150826002028217905092915050565b61089382610683565b67ffffffffffffffff8111156108ac576108ab6104a4565b5b6108b682546106ba565b6108c1828285610801565b5f60209050601f8311600181146108f2575f84156108e0578287015190505b6108ea858261086f565b865550610951565b601f198416610900866106ea565b5f5b8281101561092757848901518255600182019150602085019450602081019050610902565b868310156109445784890151610940601f891682610853565b8355505b6001600288020188555050505b505050505050565b5f73ffffffffffffffffffffffffffffffffffffffff82169050919050565b5f61098282610959565b9050919050565b61099281610978565b82525050565b5f6020820190506109ab5f830184610989565b92915050565b7f4e487b71000000000000000000000000000000000000000000000000000000005f52601160045260245ffd5b5f8160011c9050919050565b5f5f8291508390505b6001851115610a3357808604811115610a0f57610a0e6109b1565b5b6001851615610a1e5780820291505b8081029050610a2c856109de565b94506109f3565b94509492505050565b5f82610a4b5760019050610b06565b81610a58575f9050610b06565b8160018114610a6e5760028114610a7857610aa7565b6001915050610b06565b60ff841115610a8a57610a896109b1565b5b8360020a915084821115610aa157610aa06109b1565b5b50610b06565b5060208310610133831016604e8410600b8410161715610adc5782820a905083811115610ad757610ad66109b1565b5b610b06565b610ae984848460016109ea565b92509050818404811115610b0057610aff6109b1565b5b81810290505b9392505050565b5f60ff82169050919050565b5f610b23826105c8565b9150610b2e83610b0d565b9250610b5b7fffffffffffffffffffffffffffffffffffffffffffffffffffffffffffffffff8484610a3c565b905092915050565b5f610b6d826105c8565b9150610b78836105c8565b9250828202610b86816105c8565b91508282048414831517610b9d57610b9c6109b1565b5b5092915050565b5f610bae826105c8565b9150610bb9836105c8565b9250828201905080821115610bd157610bd06109b1565b5b92915050565b610be0816105c8565b82525050565b5f606082019050610bf95f830186610989565b610c066020830185610bd7565b610c136040830184610bd7565b949350505050565b5f602082019050610c2e5f830184610bd7565b92915050565b6111e780610c415f395ff3fe608060405234801561000f575f5ffd5b50600436106100e8575f3560e01c8063715018a61161008a578063a9059cbb11610064578063a9059cbb14610238578063dd62ed3e14610268578063f0dda65c14610298578063f2fde38b146102b4576100e8565b8063715018a6146101f25780638da5cb5b146101fc57806395d89b411461021a576100e8565b806318160ddd116100c657806318160ddd1461015657806323b872dd14610174578063313ce567146101a457806370a08231146101c2576100e8565b806306fdde03146100ec578063095ea7b31461010a5780630d1118ce1461013a575b5f5ffd5b6100f46102d0565b6040516101019190610e60565b60405180910390f35b610124600480360381019061011f9190610f11565b610360565b6040516101319190610f69565b60405180910390f35b610154600480360381019061014f9190610f11565b610382565b005b61015e610398565b60405161016b9190610f91565b60405180910390f35b61018e60048036038101906101899190610faa565b6103a1565b60405161019b9190610f69565b60405180910390f35b6101ac6103cf565b6040516101b99190611015565b60405180910390f35b6101dc60048036038101906101d7919061102e565b6103d7565b6040516101e99190610f91565b60405180910390f35b6101fa61041c565b005b61020461042f565b6040516102119190611068565b60405180910390f35b610222610457565b60405161022f9190610e60565b60405180910390f35b610252600480360381019061024d9190610f11565b6104e7565b60405161025f9190610f69565b60405180910390f35b610282600480360381019061027d9190611081565b610509565b60405161028f9190610f91565b60405180910390f35b6102b260048036038101906102ad9190610f11565b61058b565b005b6102ce60048036038101906102c9919061102e565b6105a1565b005b6060600380546102df906110ec565b80601f016020809104026020016040519081016040528092919081815260200182805461030b906110ec565b80156103565780601f1061032d57610100808354040283529160200191610356565b820191905f5260205f20905b81548152906001019060200180831161033957829003601f168201915b5050505050905090565b5f5f61036a610625565b905061037781858561062c565b600191505092915050565b61038a61063e565b61039482826106c5565b5050565b5f600254905090565b5f5f6103ab610625565b90506103b8858285610744565b6103c38585856107d6565b60019150509392505050565b5f6012905090565b5f5f5f8373ffffffffffffffffffffffffffffffffffffffff1673ffffffffffffffffffffffffffffffffffffffff1681526020019081526020015f20549050919050565b61042461063e565b61042d5f6108c6565b565b5f60055f9054906101000a900473ffffffffffffffffffffffffffffffffffffffff16905090565b606060048054610466906110ec565b80601f0160208091040260200160405190810160405280929190818152602001828054610492906110ec565b80156104dd5780601f106104b4576101008083540402835291602001916104dd565b820191905f5260205f20905b8154815290600101906020018083116104c057829003601f168201915b5050505050905090565b5f5f6104f1610625565b90506104fe8185856107d6565b600191505092915050565b5f60015f8473ffffffffffffffffffffffffffffffffffffffff1673ffffffffffffffffffffffffffffffffffffffff1681526020019081526020015f205f8373ffffffffffffffffffffffffffffffffffffffff1673ffffffffffffffffffffffffffffffffffffffff1681526020019081526020015f2054905092915050565b61059361063e565b61059d8282610989565b5050565b6105a961063e565b5f73ffffffffffffffffffffffffffffffffffffffff168173ffffffffffffffffffffffffffffffffffffffff1603610619575f6040517f1e4fbdf70000000000000000000000000000000000000000000000000000000081526004016106109190611068565b60405180910390fd5b610622816108c6565b50565b5f33905090565b6106398383836001610a08565b505050565b610646610625565b73ffffffffffffffffffffffffffffffffffffffff1661066461042f565b73ffffffffffffffffffffffffffffffffffffffff16146106c357610687610625565b6040517f118cdaa70000000000000000000000000000000000000000000000000000000081526004016106ba9190611068565b60405180910390fd5b565b5f73ffffffffffffffffffffffffffffffffffffffff168273ffffffffffffffffffffffffffffffffffffffff1603610735575f6040517f96c6fd1e00000000000000000000000000000000000000000000000000000000815260040161072c9190611068565b60405180910390fd5b610740825f83610bd7565b5050565b5f61074f8484610509565b90507fffffffffffffffffffffffffffffffffffffffffffffffffffffffffffffffff81146107d057818110156107c1578281836040517ffb8f41b20000000000000000000000000000000000000000000000000000000081526004016107b89392919061111c565b60405180910390fd5b6107cf84848484035f610a08565b5b50505050565b5f73ffffffffffffffffffffffffffffffffffffffff168373ffffffffffffffffffffffffffffffffffffffff1603610846575f6040517f96c6fd1e00000000000000000000000000000000000000000000000000000000815260040161083d9190611068565b60405180910390fd5b5f73ffffffffffffffffffffffffffffffffffffffff168273ffffffffffffffffffffffffffffffffffffffff16036108b6575f6040517fec442f050000000000000000000000000000000000000000000000000000000081526004016108ad9190611068565b60405180910390fd5b6108c1838383610bd7565b505050565b5f60055f9054906101000a900473ffffffffffffffffffffffffffffffffffffffff1690508160055f6101000a81548173ffffffffffffffffffffffffffffffffffffffff021916908373ffffffffffffffffffffffffffffffffffffffff1602179055508173ffffffffffffffffffffffffffffffffffffffff168173ffffffffffffffffffffffffffffffffffffffff167f8be0079c531659141344cd1fd0a4f28419497f9722a3daafe3b4186f6b6457e060405160405180910390a35050565b5f73ffffffffffffffffffffffffffffffffffffffff168273ffffffffffffffffffffffffffffffffffffffff16036109f9575f6040517fec442f050000000000000000000000000000000000000000000000000000000081526004016109f09190611068565b60405180910390fd5b610a045f8383610bd7565b5050565b5f73ffffffffffffffffffffffffffffffffffffffff168473ffffffffffffffffffffffffffffffffffffffff1603610a78575f6040517fe602df05000000000000000000000000000000000000000000000000000000008152600401610a6f9190611068565b60405180910390fd5b5f73ffffffffffffffffffffffffffffffffffffffff168373ffffffffffffffffffffffffffffffffffffffff1603610ae8575f6040517f94280d62000000000000000000000000000000000000000000000000000000008152600401610adf9190611068565b60405180910390fd5b8160015f8673ffffffffffffffffffffffffffffffffffffffff1673ffffffffffffffffffffffffffffffffffffffff1681526020019081526020015f205f8573ffffffffffffffffffffffffffffffffffffffff1673ffffffffffffffffffffffffffffffffffffffff1681526020019081526020015f20819055508015610bd1578273ffffffffffffffffffffffffffffffffffffffff168473ffffffffffffffffffffffffffffffffffffffff167f8c5be1e5ebec7d5bd14f71427d1e84f3dd0314c0f7b2291e5b200ac8c7c3b92584604051610bc89190610f91565b60405180910390a35b50505050565b5f73ffffffffffffffffffffffffffffffffffffffff168373ffffffffffffffffffffffffffffffffffffffff1603610c27578060025f828254610c1b919061117e565b92505081905550610cf5565b5f5f5f8573ffffffffffffffffffffffffffffffffffffffff1673ffffffffffffffffffffffffffffffffffffffff1681526020019081526020015f2054905081811015610cb0578381836040517fe450d38c000000000000000000000000000000000000000000000000000000008152600401610ca79392919061111c565b60405180910390fd5b8181035f5f8673ffffffffffffffffffffffffffffffffffffffff1673ffffffffffffffffffffffffffffffffffffffff1681526020019081526020015f2081905550505b5f73ffffffffffffffffffffffffffffffffffffffff168273ffffffffffffffffffffffffffffffffffffffff1603610d3c578060025f8282540392505081905550610d86565b805f5f8473ffffffffffffffffffffffffffffffffffffffff1673ffffffffffffffffffffffffffffffffffffffff1681526020019081526020015f205f82825401925050819055505b8173ffffffffffffffffffffffffffffffffffffffff168373ffffffffffffffffffffffffffffffffffffffff167fddf252ad1be2c89b69c2b068fc378daa952ba7f163c4a11628f55a4df523b3ef83604051610de39190610f91565b60405180910390a3505050565b5f81519050919050565b5f82825260208201905092915050565b8281835e5f83830152505050565b5f601f19601f8301169050919050565b5f610e3282610df0565b610e3c8185610dfa565b9350610e4c818560208601610e0a565b610e5581610e18565b840191505092915050565b5f6020820190508181035f830152610e788184610e28565b905092915050565b5f5ffd5b5f73ffffffffffffffffffffffffffffffffffffffff82169050919050565b5f610ead82610e84565b9050919050565b610ebd81610ea3565b8114610ec7575f5ffd5b50565b5f81359050610ed881610eb4565b92915050565b5f819050919050565b610ef081610ede565b8114610efa575f5ffd5b50565b5f81359050610f0b81610ee7565b92915050565b5f5f60408385031215610f2757610f26610e80565b5b5f610f3485828601610eca565b9250506020610f4585828601610efd565b9150509250929050565b5f8115159050919050565b610f6381610f4f565b82525050565b5f602082019050610f7c5f830184610f5a565b92915050565b610f8b81610ede565b82525050565b5f602082019050610fa45f830184610f82565b92915050565b5f5f5f60608486031215610fc157610fc0610e80565b5b5f610fce86828701610eca565b9350506020610fdf86828701610eca565b9250506040610ff086828701610efd565b9150509250925092565b5f60ff82169050919050565b61100f81610ffa565b82525050565b5f6020820190506110285f830184611006565b92915050565b5f6020828403121561104357611042610e80565b5b5f61105084828501610eca565b91505092915050565b61106281610ea3565b82525050565b5f60208201905061107b5f830184611059565b92915050565b5f5f6040838503121561109757611096610e80565b5b5f6110a485828601610eca565b92505060206110b585828601610eca565b9150509250929050565b7f4e487b71000000000000000000000000000000000000000000000000000000005f52602260045260245ffd5b5f600282049050600182168061110357607f821691505b602082108103611116576111156110bf565b5b50919050565b5f60608201905061112f5f830186611059565b61113c6020830185610f82565b6111496040830184610f82565b949350505050565b7f4e487b71000000000000000000000000000000000000000000000000000000005f52601160045260245ffd5b5f61118882610ede565b915061119383610ede565b92508282019050808211156111ab576111aa611151565b5b9291505056fea26469706673582212207db824d43391226e902e232ce6880522688847c5267c8902afe3069967d447a864736f6c634300081c0033",
  "immutableReferences": {},
  "source": "// SPDX-License-Identifier: MIT\r\npragma solidity ^0.8.0;\r\n\r\nimport \"@openzeppelin/contracts/token/ERC20/ERC20.sol\";\r\nimport \"@openzeppelin/contracts/access/Ownable.sol\";\r\n\r\ncontract AssetToken is ERC20, Ownable {\r\n    constructor(\r\n        string memory name,\r\n        string memory symbol,\r\n        uint256 initialSupply\r\n    ) ERC20(name, symbol) Ownable(msg.sender) { // Especifica msg.sender como el dueo inicial\r\n        _mint(msg.sender, initialSupply * (10 ** decimals()));\r\n    }\r\n\r\n    function mintTokens(address to, uint256 amount) public onlyOwner {\r\n        _mint(to, amount);\r\n    }\r\n\r\n    function burnTokens(address from, uint256 amount) public onlyOwner {\r\n        _burn(from, amount);\r\n    }\r\n}\r\n",
  "sourcePath": "C:\\Users\\Gustavo\\Desktop\\proyects\\tokenizacion-activos\\contracts\\AssetToken.sol",
  "compiler": {
    "name": "solc",
    "version": "0.8.28+commit.7893614a.Emscripten.clang"
  },
  "schemaVersion": "3.4.16",
  "updatedAt": "2024-10-31T00:53:39.351Z",
  "networkType": "ethereum",
  "devdoc": {
    "errors": {
      "ERC20InsufficientAllowance(address,uint256,uint256)": [
        {
          "details": "Indicates a failure with the `spender`s `allowance`. Used in transfers.",
          "params": {
            "allowance": "Amount of tokens a `spender` is allowed to operate with.",
            "needed": "Minimum amount required to perform a transfer.",
            "spender": "Address that may be allowed to operate on tokens without being their owner."
          }
        }
      ],
      "ERC20InsufficientBalance(address,uint256,uint256)": [
        {
          "details": "Indicates an error related to the current `balance` of a `sender`. Used in transfers.",
          "params": {
            "balance": "Current balance for the interacting account.",
            "needed": "Minimum amount required to perform a transfer.",
            "sender": "Address whose tokens are being transferred."
          }
        }
      ],
      "ERC20InvalidApprover(address)": [
        {
          "details": "Indicates a failure with the `approver` of a token to be approved. Used in approvals.",
          "params": {
            "approver": "Address initiating an approval operation."
          }
        }
      ],
      "ERC20InvalidReceiver(address)": [
        {
          "details": "Indicates a failure with the token `receiver`. Used in transfers.",
          "params": {
            "receiver": "Address to which tokens are being transferred."
          }
        }
      ],
      "ERC20InvalidSender(address)": [
        {
          "details": "Indicates a failure with the token `sender`. Used in transfers.",
          "params": {
            "sender": "Address whose tokens are being transferred."
          }
        }
      ],
      "ERC20InvalidSpender(address)": [
        {
          "details": "Indicates a failure with the `spender` to be approved. Used in approvals.",
          "params": {
            "spender": "Address that may be allowed to operate on tokens without being their owner."
          }
        }
      ],
      "OwnableInvalidOwner(address)": [
        {
          "details": "The owner is not a valid owner account. (eg. `address(0)`)"
        }
      ],
      "OwnableUnauthorizedAccount(address)": [
        {
          "details": "The caller account is not authorized to perform an operation."
        }
      ]
    },
    "events": {
      "Approval(address,address,uint256)": {
        "details": "Emitted when the allowance of a `spender` for an `owner` is set by a call to {approve}. `value` is the new allowance."
      },
      "Transfer(address,address,uint256)": {
        "details": "Emitted when `value` tokens are moved from one account (`from`) to another (`to`). Note that `value` may be zero."
      }
    },
    "kind": "dev",
    "methods": {
      "allowance(address,address)": {
        "details": "See {IERC20-allowance}."
      },
      "approve(address,uint256)": {
        "details": "See {IERC20-approve}. NOTE: If `value` is the maximum `uint256`, the allowance is not updated on `transferFrom`. This is semantically equivalent to an infinite approval. Requirements: - `spender` cannot be the zero address."
      },
      "balanceOf(address)": {
        "details": "See {IERC20-balanceOf}."
      },
      "decimals()": {
        "details": "Returns the number of decimals used to get its user representation. For example, if `decimals` equals `2`, a balance of `505` tokens should be displayed to a user as `5.05` (`505 / 10 ** 2`). Tokens usually opt for a value of 18, imitating the relationship between Ether and Wei. This is the default value returned by this function, unless it's overridden. NOTE: This information is only used for _display_ purposes: it in no way affects any of the arithmetic of the contract, including {IERC20-balanceOf} and {IERC20-transfer}."
      },
      "name()": {
        "details": "Returns the name of the token."
      },
      "owner()": {
        "details": "Returns the address of the current owner."
      },
      "renounceOwnership()": {
        "details": "Leaves the contract without owner. It will not be possible to call `onlyOwner` functions. Can only be called by the current owner. NOTE: Renouncing ownership will leave the contract without an owner, thereby disabling any functionality that is only available to the owner."
      },
      "symbol()": {
        "details": "Returns the symbol of the token, usually a shorter version of the name."
      },
      "totalSupply()": {
        "details": "See {IERC20-totalSupply}."
      },
      "transfer(address,uint256)": {
        "details": "See {IERC20-transfer}. Requirements: - `to` cannot be the zero address. - the caller must have a balance of at least `value`."
      },
      "transferFrom(address,address,uint256)": {
        "details": "See {IERC20-transferFrom}. Skips emitting an {Approval} event indicating an allowance update. This is not required by the ERC. See {xref-ERC20-_approve-address-address-uint256-bool-}[_approve]. NOTE: Does not update the allowance if the current allowance is the maximum `uint256`. Requirements: - `from` and `to` cannot be the zero address. - `from` must have a balance of at least `value`. - the caller must have allowance for ``from``'s tokens of at least `value`."
      },
      "transferOwnership(address)": {
        "details": "Transfers ownership of the contract to a new account (`newOwner`). Can only be called by the current owner."
      }
    },
    "version": 1
  },
  "userdoc": {
    "kind": "user",
    "methods": {},
    "version": 1
  }
}